{
  "contractName": "Purchase",
  "abi": [
    {
      "constant": true,
      "inputs": [
        {
          "name": "",
          "type": "bytes32"
        }
      ],
      "name": "trans",
      "outputs": [
        {
          "name": "TransKey",
          "type": "bytes32"
        },
        {
          "name": "User",
          "type": "address"
        },
        {
          "name": "SP",
          "type": "address"
        },
        {
          "name": "Business",
          "type": "address"
        },
        {
          "name": "isUserAssigned",
          "type": "bool"
        },
        {
          "name": "isSPAssigned",
          "type": "bool"
        },
        {
          "name": "isBusinessConfirm",
          "type": "bool"
        },
        {
          "name": "isUserConfirm",
          "type": "bool"
        },
        {
          "name": "isSPConfirm",
          "type": "bool"
        },
        {
          "name": "UserShare",
          "type": "uint256"
        },
        {
          "name": "SPShare",
          "type": "uint256"
        },
        {
          "name": "isValue",
          "type": "bool"
        },
        {
          "name": "blockNum",
          "type": "uint256"
        },
        {
          "name": "expireBlock",
          "type": "uint256"
        }
      ],
      "payable": false,
      "stateMutability": "view",
      "type": "function"
    },
    {
      "constant": true,
      "inputs": [],
      "name": "contractOwner",
      "outputs": [
        {
          "name": "",
          "type": "address"
        }
      ],
      "payable": false,
      "stateMutability": "view",
      "type": "function"
    },
    {
      "inputs": [],
      "payable": true,
      "stateMutability": "payable",
      "type": "constructor"
    },
    {
      "anonymous": false,
      "inputs": [],
      "name": "Aborted",
      "type": "event"
    },
    {
      "anonymous": false,
      "inputs": [],
      "name": "PurchaseConfirmed",
      "type": "event"
    },
    {
      "anonymous": false,
      "inputs": [],
      "name": "ItemReceived",
      "type": "event"
    },
    {
      "anonymous": false,
      "inputs": [
        {
          "indexed": false,
          "name": "b",
          "type": "bytes32"
        }
      ],
      "name": "log_trans",
      "type": "event"
    },
    {
      "anonymous": false,
      "inputs": [
        {
          "indexed": false,
          "name": "transKey",
          "type": "bytes32"
        }
      ],
      "name": "TransactionInited",
      "type": "event"
    },
    {
      "anonymous": false,
      "inputs": [
        {
          "indexed": false,
          "name": "transKey",
          "type": "bytes32"
        },
        {
          "indexed": false,
          "name": "user",
          "type": "address"
        }
      ],
      "name": "UserAssigned",
      "type": "event"
    },
    {
      "anonymous": false,
      "inputs": [
        {
          "indexed": false,
          "name": "transKey",
          "type": "bytes32"
        },
        {
          "indexed": false,
          "name": "sp",
          "type": "address"
        }
      ],
      "name": "SPAssigned",
      "type": "event"
    },
    {
      "anonymous": false,
      "inputs": [
        {
          "indexed": false,
          "name": "",
          "type": "string"
        },
        {
          "indexed": false,
          "name": "",
          "type": "bytes32"
        }
      ],
      "name": "LogAddress",
      "type": "event"
    },
    {
      "anonymous": false,
      "inputs": [],
      "name": "PayUser",
      "type": "event"
    },
    {
      "anonymous": false,
      "inputs": [],
      "name": "PaySP",
      "type": "event"
    },
    {
      "anonymous": false,
      "inputs": [],
      "name": "PayAll",
      "type": "event"
    },
    {
      "anonymous": false,
      "inputs": [],
      "name": "PayBack",
      "type": "event"
    },
    {
      "constant": false,
      "inputs": [
        {
          "name": "s",
          "type": "string"
        },
        {
          "name": "x",
          "type": "bytes32"
        }
      ],
      "name": "log",
      "outputs": [],
      "payable": false,
      "stateMutability": "nonpayable",
      "type": "function"
    },
    {
      "constant": true,
      "inputs": [
        {
          "name": "key",
          "type": "bytes32"
        }
      ],
      "name": "GetTransEntities",
      "outputs": [
        {
          "name": "",
          "type": "bytes32"
        },
        {
          "name": "",
          "type": "address"
        },
        {
          "name": "",
          "type": "address"
        },
        {
          "name": "",
          "type": "address"
        }
      ],
      "payable": false,
      "stateMutability": "view",
      "type": "function"
    },
    {
      "constant": true,
      "inputs": [],
      "name": "GetCallerBalance",
      "outputs": [
        {
          "name": "",
          "type": "uint256"
        }
      ],
      "payable": false,
      "stateMutability": "view",
      "type": "function"
    },
    {
      "constant": true,
      "inputs": [],
      "name": "GetCurrentBlockNum",
      "outputs": [
        {
          "name": "",
          "type": "uint256"
        }
      ],
      "payable": false,
      "stateMutability": "view",
      "type": "function"
    },
    {
      "constant": true,
      "inputs": [
        {
          "name": "key",
          "type": "bytes32"
        }
      ],
      "name": "GetBlockNum",
      "outputs": [
        {
          "name": "",
          "type": "bytes32"
        },
        {
          "name": "",
          "type": "uint256"
        }
      ],
      "payable": false,
      "stateMutability": "view",
      "type": "function"
    },
    {
      "constant": true,
      "inputs": [
        {
          "name": "key",
          "type": "bytes32"
        }
      ],
      "name": "GetTransConditions",
      "outputs": [
        {
          "name": "",
          "type": "bytes32"
        },
        {
          "name": "",
          "type": "bool"
        },
        {
          "name": "",
          "type": "bool"
        },
        {
          "name": "",
          "type": "bool"
        }
      ],
      "payable": false,
      "stateMutability": "view",
      "type": "function"
    },
    {
      "constant": true,
      "inputs": [
        {
          "name": "key",
          "type": "bytes32"
        }
      ],
      "name": "GetTransShares",
      "outputs": [
        {
          "name": "",
          "type": "bytes32"
        },
        {
          "name": "",
          "type": "uint256"
        },
        {
          "name": "",
          "type": "uint256"
        }
      ],
      "payable": false,
      "stateMutability": "view",
      "type": "function"
    },
    {
      "constant": true,
      "inputs": [
        {
          "name": "key",
          "type": "bytes32"
        }
      ],
      "name": "GetTransExist",
      "outputs": [
        {
          "name": "",
          "type": "bool"
        }
      ],
      "payable": false,
      "stateMutability": "view",
      "type": "function"
    },
    {
      "constant": true,
      "inputs": [],
      "name": "GetReturnDeductionRatio",
      "outputs": [
        {
          "name": "ratio",
          "type": "uint256"
        }
      ],
      "payable": false,
      "stateMutability": "view",
      "type": "function"
    },
    {
      "constant": false,
      "inputs": [
        {
          "name": "ratio",
          "type": "uint256"
        }
      ],
      "name": "AdjustReturnDeductionRatio",
      "outputs": [],
      "payable": false,
      "stateMutability": "nonpayable",
      "type": "function"
    },
    {
      "constant": true,
      "inputs": [
        {
          "name": "salt",
          "type": "uint256"
        }
      ],
      "name": "GenerateTransKey",
      "outputs": [
        {
          "name": "TransKey",
          "type": "bytes32"
        }
      ],
      "payable": false,
      "stateMutability": "view",
      "type": "function"
    },
    {
      "constant": false,
      "inputs": [
        {
          "name": "userShare",
          "type": "uint256"
        },
        {
          "name": "spShare",
          "type": "uint256"
        }
      ],
      "name": "InitTransaction",
      "outputs": [],
      "payable": true,
      "stateMutability": "payable",
      "type": "function"
    },
    {
      "constant": false,
      "inputs": [
        {
          "name": "transKey",
          "type": "bytes32"
        },
        {
          "name": "user",
          "type": "address"
        }
      ],
      "name": "AssignUser",
      "outputs": [],
      "payable": false,
      "stateMutability": "nonpayable",
      "type": "function"
    },
    {
      "constant": false,
      "inputs": [
        {
          "name": "transKey",
          "type": "bytes32"
        },
        {
          "name": "sp",
          "type": "address"
        }
      ],
      "name": "AssignSP",
      "outputs": [],
      "payable": false,
      "stateMutability": "nonpayable",
      "type": "function"
    },
    {
      "constant": false,
      "inputs": [
        {
          "name": "transKey",
          "type": "bytes32"
        }
      ],
      "name": "UserConfirm",
      "outputs": [],
      "payable": false,
      "stateMutability": "nonpayable",
      "type": "function"
    },
    {
      "constant": false,
      "inputs": [
        {
          "name": "transKey",
          "type": "bytes32"
        }
      ],
      "name": "SPConfirm",
      "outputs": [],
      "payable": false,
      "stateMutability": "nonpayable",
      "type": "function"
    },
    {
      "constant": false,
      "inputs": [
        {
          "name": "transKey",
          "type": "bytes32"
        }
      ],
      "name": "BusinessConfirm",
      "outputs": [],
      "payable": false,
      "stateMutability": "nonpayable",
      "type": "function"
    },
    {
      "constant": false,
      "inputs": [
        {
          "name": "transKey",
          "type": "bytes32"
        }
      ],
      "name": "FulFill",
      "outputs": [],
      "payable": false,
      "stateMutability": "nonpayable",
      "type": "function"
    },
    {
      "constant": false,
      "inputs": [
        {
          "name": "transKey",
          "type": "bytes32"
        }
      ],
      "name": "UserReject",
      "outputs": [],
      "payable": false,
      "stateMutability": "nonpayable",
      "type": "function"
    },
    {
      "constant": false,
      "inputs": [
        {
          "name": "transKey",
          "type": "bytes32"
        }
      ],
      "name": "SPReject",
      "outputs": [],
      "payable": false,
      "stateMutability": "nonpayable",
      "type": "function"
    },
    {
      "constant": false,
      "inputs": [
        {
          "name": "transKey",
          "type": "bytes32"
        }
      ],
      "name": "CheckExpired",
      "outputs": [],
      "payable": false,
      "stateMutability": "nonpayable",
      "type": "function"
    }
  ],
  "bytecode": "0x608060405260c860005533600160006101000a81548173ffffffffffffffffffffffffffffffffffffffff021916908373ffffffffffffffffffffffffffffffffffffffff160217905550612ca8806100596000396000f300608060405260043610610133576000357c0100000000000000000000000000000000000000000000000000000000900463ffffffff1680630d14708f1461013857806312c378a2146101635780631aaeab261461018d5780632a41c48d146101be5780632a990c3f146102125780632d32591b146102635780633692d61a14610349578063641f136d146103c0578063754dd2a5146103ed57806379063c781461043657806382bef25b14610461578063b5787c27146104cf578063bafa9f35146104fa578063bdbaf8de1461052b578063be9026dc1461066f578063ce606ee0146106a0578063d3397055146106f7578063d4d6f61f14610728578063d5c0cbc614610771578063ebf0388a146107a2578063f52d4bf1146107d3578063f8a717a314610804578063fff9f5db14610855575b600080fd5b34801561014457600080fd5b5061014d6108b0565b6040518082815260200191505060405180910390f35b61018b60048036038101908080359060200190929190803590602001909291905050506108b9565b005b34801561019957600080fd5b506101bc6004803603810190808035600019169060200190929190505050610daa565b005b3480156101ca57600080fd5b506101ed6004803603810190808035600019169060200190929190505050611083565b6040518083600019166000191681526020018281526020019250505060405180910390f35b34801561021e57600080fd5b506102616004803603810190808035600019169060200190929190803573ffffffffffffffffffffffffffffffffffffffff1690602001909291905050506110cd565b005b34801561026f57600080fd5b506102926004803603810190808035600019169060200190929190505050611291565b6040518085600019166000191681526020018473ffffffffffffffffffffffffffffffffffffffff1673ffffffffffffffffffffffffffffffffffffffff1681526020018373ffffffffffffffffffffffffffffffffffffffff1673ffffffffffffffffffffffffffffffffffffffff1681526020018273ffffffffffffffffffffffffffffffffffffffff1673ffffffffffffffffffffffffffffffffffffffff16815260200194505050505060405180910390f35b34801561035557600080fd5b506103be600480360381019080803590602001908201803590602001908080601f01602080910402602001604051908101604052809392919081815260200183838082843782019150505050505091929192908035600019169060200190929190505050611382565b005b3480156103cc57600080fd5b506103eb60048036038101908080359060200190929190505050611432565b005b3480156103f957600080fd5b5061041c6004803603810190808035600019169060200190929190505050611498565b604051808215151515815260200191505060405180910390f35b34801561044257600080fd5b5061044b6114cd565b6040518082815260200191505060405180910390f35b34801561046d57600080fd5b5061049060048036038101908080356000191690602001909291905050506114ec565b60405180856000191660001916815260200184151515158152602001831515151581526020018215151515815260200194505050505060405180910390f35b3480156104db57600080fd5b506104e46115a4565b6040518082815260200191505060405180910390f35b34801561050657600080fd5b5061052960048036038101908080356000191690602001909291905050506115ac565b005b34801561053757600080fd5b5061055a6004803603810190808035600019169060200190929190505050611709565b604051808f600019166000191681526020018e73ffffffffffffffffffffffffffffffffffffffff1673ffffffffffffffffffffffffffffffffffffffff1681526020018d73ffffffffffffffffffffffffffffffffffffffff1673ffffffffffffffffffffffffffffffffffffffff1681526020018c73ffffffffffffffffffffffffffffffffffffffff1673ffffffffffffffffffffffffffffffffffffffff1681526020018b1515151581526020018a151515158152602001891515151581526020018815151515815260200187151515158152602001868152602001858152602001841515151581526020018381526020018281526020019e50505050505050505050505050505060405180910390f35b34801561067b57600080fd5b5061069e6004803603810190808035600019169060200190929190505050611823565b005b3480156106ac57600080fd5b506106b5611980565b604051808273ffffffffffffffffffffffffffffffffffffffff1673ffffffffffffffffffffffffffffffffffffffff16815260200191505060405180910390f35b34801561070357600080fd5b5061072660048036038101908080356000191690602001909291905050506119a6565b005b34801561073457600080fd5b5061075360048036038101908080359060200190929190505050611cf5565b60405180826000191660001916815260200191505060405180910390f35b34801561077d57600080fd5b506107a06004803603810190808035600019169060200190929190505050611dcb565b005b3480156107ae57600080fd5b506107d160048036038101908080356000191690602001909291905050506122c3565b005b3480156107df57600080fd5b5061080260048036038101908080356000191690602001909291905050506125a0565b005b34801561081057600080fd5b506108536004803603810190808035600019169060200190929190803573ffffffffffffffffffffffffffffffffffffffff16906020019092919050505061276f565b005b34801561086157600080fd5b506108846004803603810190808035600019169060200190929190505050612a16565b604051808460001916600019168152602001838152602001828152602001935050505060405180910390f35b60008054905090565b6000806108c4612bbb565b600092506108d183611cf5565b91505b60011561092c5760026000836000191660001916815260200190815260200160002060060160009054906101000a900460ff16156109225760018301925061091b83611cf5565b9150610927565b61092c565b6108d4565b6101c06040519081016040528083600019168152602001600073ffffffffffffffffffffffffffffffffffffffff168152602001600073ffffffffffffffffffffffffffffffffffffffff1681526020013373ffffffffffffffffffffffffffffffffffffffff168152602001600015158152602001600015158152602001600015158152602001600015158152602001600015158152602001868152602001858152602001600115158152602001438152602001600343018152509050806002600084600019166000191681526020019081526020016000206000820151816000019060001916905560208201518160010160006101000a81548173ffffffffffffffffffffffffffffffffffffffff021916908373ffffffffffffffffffffffffffffffffffffffff16021790555060408201518160020160006101000a81548173ffffffffffffffffffffffffffffffffffffffff021916908373ffffffffffffffffffffffffffffffffffffffff16021790555060608201518160030160006101000a81548173ffffffffffffffffffffffffffffffffffffffff021916908373ffffffffffffffffffffffffffffffffffffffff16021790555060808201518160030160146101000a81548160ff02191690831515021790555060a08201518160030160156101000a81548160ff02191690831515021790555060c08201518160030160166101000a81548160ff02191690831515021790555060e08201518160030160176101000a81548160ff0219169083151502179055506101008201518160030160186101000a81548160ff021916908315150217905550610120820151816004015561014082015181600501556101608201518160060160006101000a81548160ff02191690831515021790555061018082015181600701556101a082015181600801559050506001151560026000846000191660001916815260200190815260200160002060060160009054906101000a900460ff161515141515610c83576040517f08c379a00000000000000000000000000000000000000000000000000000000081526004018080602001828103825260148152602001807f7472616e734b6579206d7573742065786973742100000000000000000000000081525060200191505060405180910390fd5b3373ffffffffffffffffffffffffffffffffffffffff1660026000846000191660001916815260200190815260200160002060030160009054906101000a900473ffffffffffffffffffffffffffffffffffffffff1673ffffffffffffffffffffffffffffffffffffffff16141515610d64576040517f08c379a00000000000000000000000000000000000000000000000000000000081526004018080602001828103825260178152602001807f4f6e6c7920627573696e6573732063616e2063616c6c2e00000000000000000081525060200191505060405180910390fd5b7f4213923e4fca0faaa60f9d7b2f2a2530f1f734c87cb906fb6cf12cadf14d982d8260405180826000191660001916815260200191505060405180910390a15050505050565b6000816001151560026000836000191660001916815260200190815260200160002060060160009054906101000a900460ff161515141515610e54576040517f08c379a00000000000000000000000000000000000000000000000000000000081526004018080602001828103825260148152602001807f7472616e734b6579206d7573742065786973742100000000000000000000000081525060200191505060405180910390fd5b600260008460001916600019168152602001908152602001600020915081600401548260050154013073ffffffffffffffffffffffffffffffffffffffff163110151515610ea157600080fd5b8160030160169054906101000a900460ff168015610ecd57508160030160189054906101000a900460ff165b8015610ee757508160030160179054906101000a900460ff165b15610fd4578160010160009054906101000a900473ffffffffffffffffffffffffffffffffffffffff1673ffffffffffffffffffffffffffffffffffffffff166108fc83600401549081150290604051600060405180830381858888f19350505050158015610f5a573d6000803e3d6000fd5b508160020160009054906101000a900473ffffffffffffffffffffffffffffffffffffffff1673ffffffffffffffffffffffffffffffffffffffff166108fc83600501549081150290604051600060405180830381858888f19350505050158015610fc9573d6000803e3d6000fd5b50610fd383612a85565b5b8160030160169054906101000a900460ff16801561100057508160030160179054906101000a900460ff165b1561107e578160010160009054906101000a900473ffffffffffffffffffffffffffffffffffffffff1673ffffffffffffffffffffffffffffffffffffffff166108fc83600401549081150290604051600060405180830381858888f19350505050158015611073573d6000803e3d6000fd5b5061107d83612a85565b5b505050565b600080600260008460001916600019168152602001908152602001600020600001546002600085600019166000191681526020019081526020016000206007015491509150915091565b6000826001151560026000836000191660001916815260200190815260200160002060060160009054906101000a900460ff161515141515611177576040517f08c379a00000000000000000000000000000000000000000000000000000000081526004018080602001828103825260148152602001807f7472616e734b6579206d7573742065786973742100000000000000000000000081525060200191505060405180910390fd5b6002600085600019166000191681526020019081526020016000209150600115158260030160159054906101000a900460ff16151514156111b75761128b565b828260020160006101000a81548173ffffffffffffffffffffffffffffffffffffffff021916908373ffffffffffffffffffffffffffffffffffffffff16021790555060018260030160156101000a81548160ff0219169083151502179055507f299f8b6b62299e6169a782bae2c660820879720bd6612a035a71a3bb3a00db7484846040518083600019166000191681526020018273ffffffffffffffffffffffffffffffffffffffff1673ffffffffffffffffffffffffffffffffffffffff1681526020019250505060405180910390a15b50505050565b6000806000806002600086600019166000191681526020019081526020016000206000015460026000876000191660001916815260200190815260200160002060010160009054906101000a900473ffffffffffffffffffffffffffffffffffffffff1660026000886000191660001916815260200190815260200160002060020160009054906101000a900473ffffffffffffffffffffffffffffffffffffffff1660026000896000191660001916815260200190815260200160002060030160009054906101000a900473ffffffffffffffffffffffffffffffffffffffff1693509350935093509193509193565b7f6d19b6f3823574b030048022e4478c34f13a80e1c70cbaf1c6b3bcc37d754c5f828260405180806020018360001916600019168152602001828103825284818151815260200191508051906020019080838360005b838110156113f35780820151818401526020810190506113d8565b50505050905090810190601f1680156114205780820380516001836020036101000a031916815260200191505b50935050505060405180910390a15050565b600160009054906101000a900473ffffffffffffffffffffffffffffffffffffffff1673ffffffffffffffffffffffffffffffffffffffff163373ffffffffffffffffffffffffffffffffffffffff1614151561148e57600080fd5b8060008190555050565b600060026000836000191660001916815260200190815260200160002060060160009054906101000a900460ff169050919050565b60003373ffffffffffffffffffffffffffffffffffffffff1631905090565b6000806000806002600086600019166000191681526020019081526020016000206000015460026000876000191660001916815260200190815260200160002060030160179054906101000a900460ff1660026000886000191660001916815260200190815260200160002060030160189054906101000a900460ff1660026000896000191660001916815260200190815260200160002060030160169054906101000a900460ff1693509350935093509193509193565b600043905090565b806001151560026000836000191660001916815260200190815260200160002060060160009054906101000a900460ff161515141515611654576040517f08c379a00000000000000000000000000000000000000000000000000000000081526004018080602001828103825260148152602001807f7472616e734b6579206d7573742065786973742100000000000000000000000081525060200191505060405180910390fd5b813373ffffffffffffffffffffffffffffffffffffffff1660026000836000191660001916815260200190815260200160002060020160009054906101000a900473ffffffffffffffffffffffffffffffffffffffff1673ffffffffffffffffffffffffffffffffffffffff161415156116cd57600080fd5b600160026000856000191660001916815260200190815260200160002060030160186101000a81548160ff021916908315150217905550505050565b60026020528060005260406000206000915090508060000154908060010160009054906101000a900473ffffffffffffffffffffffffffffffffffffffff16908060020160009054906101000a900473ffffffffffffffffffffffffffffffffffffffff16908060030160009054906101000a900473ffffffffffffffffffffffffffffffffffffffff16908060030160149054906101000a900460ff16908060030160159054906101000a900460ff16908060030160169054906101000a900460ff16908060030160179054906101000a900460ff16908060030160189054906101000a900460ff16908060040154908060050154908060060160009054906101000a900460ff1690806007015490806008015490508e565b806001151560026000836000191660001916815260200190815260200160002060060160009054906101000a900460ff1615151415156118cb576040517f08c379a00000000000000000000000000000000000000000000000000000000081526004018080602001828103825260148152602001807f7472616e734b6579206d7573742065786973742100000000000000000000000081525060200191505060405180910390fd5b813373ffffffffffffffffffffffffffffffffffffffff1660026000836000191660001916815260200190815260200160002060010160009054906101000a900473ffffffffffffffffffffffffffffffffffffffff1673ffffffffffffffffffffffffffffffffffffffff1614151561194457600080fd5b600160026000856000191660001916815260200190815260200160002060030160176101000a81548160ff021916908315150217905550505050565b600160009054906101000a900473ffffffffffffffffffffffffffffffffffffffff1681565b600080826001151560026000836000191660001916815260200190815260200160002060060160009054906101000a900460ff161515141515611a51576040517f08c379a00000000000000000000000000000000000000000000000000000000081526004018080602001828103825260148152602001807f7472616e734b6579206d7573742065786973742100000000000000000000000081525060200191505060405180910390fd5b833373ffffffffffffffffffffffffffffffffffffffff1660026000836000191660001916815260200190815260200160002060010160009054906101000a900473ffffffffffffffffffffffffffffffffffffffff1673ffffffffffffffffffffffffffffffffffffffff16141515611aca57600080fd5b60026000866000191660001916815260200190815260200160002093508360030160179054906101000a900460ff168015611b1357508360030160189054906101000a900460ff165b15611c43576103e8600054856005015402811515611b2d57fe5b0492508360020160009054906101000a900473ffffffffffffffffffffffffffffffffffffffff1673ffffffffffffffffffffffffffffffffffffffff166108fc849081150290604051600060405180830381858888f19350505050158015611b9a573d6000803e3d6000fd5b508360030160009054906101000a900473ffffffffffffffffffffffffffffffffffffffff1673ffffffffffffffffffffffffffffffffffffffff166108fc856004015485876005015403019081150290604051600060405180830381858888f19350505050158015611c11573d6000803e3d6000fd5b507f9fadbf137bc6f4c854447d7faf17d8effbc6c16c2bcd4bc717dc7947834344bd60405160405180910390a1611ce5565b8360030160009054906101000a900473ffffffffffffffffffffffffffffffffffffffff1673ffffffffffffffffffffffffffffffffffffffff166108fc85600401548660050154019081150290604051600060405180830381858888f19350505050158015611cb7573d6000803e3d6000fd5b507fe5e1b806b20ff33c9186ba02b39793af8fc9a42e43c9f4a75b57a7b7a509053e60405160405180910390a15b611cee85612a85565b5050505050565b6000334283604051602001808473ffffffffffffffffffffffffffffffffffffffff1673ffffffffffffffffffffffffffffffffffffffff166c0100000000000000000000000002815260140183815260200182815260200193505050506040516020818303038152906040526040518082805190602001908083835b602083101515611d975780518252602082019150602081019050602083039250611d72565b6001836020036101000a03801982511681845116808217855250505050505090500191505060405180910390209050919050565b6000806000836001151560026000836000191660001916815260200190815260200160002060060160009054906101000a900460ff161515141515611e78576040517f08c379a00000000000000000000000000000000000000000000000000000000081526004018080602001828103825260148152602001807f7472616e734b6579206d7573742065786973742100000000000000000000000081525060200191505060405180910390fd5b600260008660001916600019168152602001908152602001600020935043846008015410156122bc578360030160169054906101000a900460ff1615611fc7578360010160009054906101000a900473ffffffffffffffffffffffffffffffffffffffff1673ffffffffffffffffffffffffffffffffffffffff166108fc85600401549081150290604051600060405180830381858888f19350505050158015611f26573d6000803e3d6000fd5b508360020160009054906101000a900473ffffffffffffffffffffffffffffffffffffffff1673ffffffffffffffffffffffffffffffffffffffff166108fc85600501549081150290604051600060405180830381858888f19350505050158015611f95573d6000803e3d6000fd5b507f3dc05a17525f3c5100fed066ae839556ee00b87b516786807bb0a54d0d36db3860405160405180910390a16122b2565b8360030160189054906101000a900460ff1615612172576103e8600054856005015402811515611ff357fe5b0492508360020160009054906101000a900473ffffffffffffffffffffffffffffffffffffffff1673ffffffffffffffffffffffffffffffffffffffff166108fc849081150290604051600060405180830381858888f19350505050158015612060573d6000803e3d6000fd5b508360010160009054906101000a900473ffffffffffffffffffffffffffffffffffffffff1673ffffffffffffffffffffffffffffffffffffffff166108fc85600401549081150290604051600060405180830381858888f193505050501580156120cf573d6000803e3d6000fd5b508360030160009054906101000a900473ffffffffffffffffffffffffffffffffffffffff1673ffffffffffffffffffffffffffffffffffffffff166108fc848660050154039081150290604051600060405180830381858888f19350505050158015612140573d6000803e3d6000fd5b507f9fadbf137bc6f4c854447d7faf17d8effbc6c16c2bcd4bc717dc7947834344bd60405160405180910390a16122b1565b8360030160179054906101000a900460ff16156122b0576103e860005485600401540281151561219e57fe5b0491508360010160009054906101000a900473ffffffffffffffffffffffffffffffffffffffff1673ffffffffffffffffffffffffffffffffffffffff166108fc839081150290604051600060405180830381858888f1935050505015801561220b573d6000803e3d6000fd5b508360030160009054906101000a900473ffffffffffffffffffffffffffffffffffffffff1673ffffffffffffffffffffffffffffffffffffffff166108fc838660040154876005015401039081150290604051600060405180830381858888f19350505050158015612282573d6000803e3d6000fd5b507f79fad640395b34abf3ee4f9a98b40c76a9209a66a4653e77642e84d1cd3a801560405160405180910390a15b5b5b6122bb85612a85565b5b5050505050565b600080826001151560026000836000191660001916815260200190815260200160002060060160009054906101000a900460ff16151514151561236e576040517f08c379a00000000000000000000000000000000000000000000000000000000081526004018080602001828103825260148152602001807f7472616e734b6579206d7573742065786973742100000000000000000000000081525060200191505060405180910390fd5b833373ffffffffffffffffffffffffffffffffffffffff1660026000836000191660001916815260200190815260200160002060020160009054906101000a900473ffffffffffffffffffffffffffffffffffffffff1673ffffffffffffffffffffffffffffffffffffffff161415156123e757600080fd5b60026000866000191660001916815260200190815260200160002093508360030160179054906101000a900460ff161561251a576103e860005485600501540281151561243057fe5b0492508360010160009054906101000a900473ffffffffffffffffffffffffffffffffffffffff1673ffffffffffffffffffffffffffffffffffffffff166108fc849081150290604051600060405180830381858888f1935050505015801561249d573d6000803e3d6000fd5b508360030160009054906101000a900473ffffffffffffffffffffffffffffffffffffffff1673ffffffffffffffffffffffffffffffffffffffff166108fc856005015485876004015403019081150290604051600060405180830381858888f19350505050158015612514573d6000803e3d6000fd5b50612590565b8360030160009054906101000a900473ffffffffffffffffffffffffffffffffffffffff1673ffffffffffffffffffffffffffffffffffffffff166108fc85600501548660040154019081150290604051600060405180830381858888f1935050505015801561258e573d6000803e3d6000fd5b505b61259985612a85565b5050505050565b806001151560026000836000191660001916815260200190815260200160002060060160009054906101000a900460ff161515141515612648576040517f08c379a00000000000000000000000000000000000000000000000000000000081526004018080602001828103825260148152602001807f7472616e734b6579206d7573742065786973742100000000000000000000000081525060200191505060405180910390fd5b813373ffffffffffffffffffffffffffffffffffffffff1660026000836000191660001916815260200190815260200160002060030160009054906101000a900473ffffffffffffffffffffffffffffffffffffffff1673ffffffffffffffffffffffffffffffffffffffff1614151561272a576040517f08c379a00000000000000000000000000000000000000000000000000000000081526004018080602001828103825260178152602001807f4f6e6c7920627573696e6573732063616e2063616c6c2e00000000000000000081525060200191505060405180910390fd5b600160026000856000191660001916815260200190815260200160002060030160166101000a81548160ff02191690831515021790555061276a83610daa565b505050565b6000826001151560026000836000191660001916815260200190815260200160002060060160009054906101000a900460ff161515141515612819576040517f08c379a00000000000000000000000000000000000000000000000000000000081526004018080602001828103825260148152602001807f7472616e734b6579206d7573742065786973742100000000000000000000000081525060200191505060405180910390fd5b833373ffffffffffffffffffffffffffffffffffffffff1660026000836000191660001916815260200190815260200160002060030160009054906101000a900473ffffffffffffffffffffffffffffffffffffffff1673ffffffffffffffffffffffffffffffffffffffff161415156128fb576040517f08c379a00000000000000000000000000000000000000000000000000000000081526004018080602001828103825260178152602001807f4f6e6c7920627573696e6573732063616e2063616c6c2e00000000000000000081525060200191505060405180910390fd5b6002600086600019166000191681526020019081526020016000209250600115158360030160149054906101000a900460ff161515141561293b57612a0f565b838360010160006101000a81548173ffffffffffffffffffffffffffffffffffffffff021916908373ffffffffffffffffffffffffffffffffffffffff16021790555060018360030160146101000a81548160ff0219169083151502179055507f686b94458a6c160fe204f25518e1aeeaa35056dd822bcaa607d108076e38af8a85856040518083600019166000191681526020018273ffffffffffffffffffffffffffffffffffffffff1673ffffffffffffffffffffffffffffffffffffffff1681526020019250505060405180910390a15b5050505050565b60008060006002600085600019166000191681526020019081526020016000206000015460026000866000191660001916815260200190815260200160002060040154600260008760001916600019168152602001908152602001600020600501549250925092509193909250565b6002600082600019166000191681526020019081526020016000206000808201600090556001820160006101000a81549073ffffffffffffffffffffffffffffffffffffffff02191690556002820160006101000a81549073ffffffffffffffffffffffffffffffffffffffff02191690556003820160006101000a81549073ffffffffffffffffffffffffffffffffffffffff02191690556003820160146101000a81549060ff02191690556003820160156101000a81549060ff02191690556003820160166101000a81549060ff02191690556003820160176101000a81549060ff02191690556003820160186101000a81549060ff0219169055600482016000905560058201600090556006820160006101000a81549060ff021916905560078201600090556008820160009055505050565b6101c06040519081016040528060008019168152602001600073ffffffffffffffffffffffffffffffffffffffff168152602001600073ffffffffffffffffffffffffffffffffffffffff168152602001600073ffffffffffffffffffffffffffffffffffffffff1681526020016000151581526020016000151581526020016000151581526020016000151581526020016000151581526020016000815260200160008152602001600015158152602001600081526020016000815250905600a165627a7a723058204838abaa109a25b2685ad9d989033dd05ef6f70206726aaba1dcbfc2434c240c0029",
  "source": "pragma solidity ^0.4.22;\n\ncontract Purchase {\n    /*\n        1 equals to 1/1000, ex: 200 equals to 20%\n    */\n    uint private RETURN_DEDUCTION_RATIO = 200;\n    \n    \n    address public contractOwner;\n    struct Transaction {\n        bytes32 TransKey;\n        address User;\n        address SP;\n        address Business;\n        bool isUserAssigned;\n        bool isSPAssigned;\n        bool isBusinessConfirm;\n        bool isUserConfirm;\n        bool isSPConfirm;\n        uint UserShare;\n        uint SPShare;\n        bool isValue;\n        uint blockNum;\n        uint expireBlock;\n    }\n    mapping(bytes32 => Transaction) public trans;\n    \n    constructor() public payable {\n        contractOwner = msg.sender;\n    }\n    \n    modifier OnlyOwner(){\n        require(msg.sender == contractOwner);\n        _;\n    }\n\n    modifier OnlyBusiness(bytes32 transKey) { \n        require (\n        trans[transKey].Business == msg.sender,\n        \"Only business can call.\"\n        );\n        _; \n    }\n    \n    modifier OnlyUser(bytes32 transKey) { \n        \n        require (trans[transKey].User == msg.sender); \n        _; \n    }\n    \n    modifier OnlySP(bytes32 transKey) { \n        \n        require (trans[transKey].SP == msg.sender); \n        _; \n    }\n    \n    modifier TransExist(bytes32 transKey) {\n        require(\n        trans[transKey].isValue == true,\n        \"transKey must exist!\"\n        );\n        _;\n    }\n    \n    event Aborted();\n    event PurchaseConfirmed();\n    event ItemReceived();\n    event log_trans(bytes32 b);\n    event TransactionInited(bytes32 transKey);\n    event UserAssigned(bytes32 transKey, address user);\n    event SPAssigned(bytes32 transKey, address sp);\n\n    event LogAddress(string, bytes32);\n    event PayUser();\n    event PaySP();\n    event PayAll();\n    event PayBack();\n\n    function log(string s , bytes32 x) public{\n        emit LogAddress(s, x);\n    }\n    \n    function GetTransEntities(bytes32 key)\n        public\n        view\n        returns (\n        bytes32,\n        address,\n        address,\n        address)\n    {\n        return (trans[key].TransKey,\n                trans[key].User,\n                trans[key].SP,\n                trans[key].Business);\n    }\n\n    function GetCallerBalance()\n        public\n        view\n        returns (\n        uint)\n    {\n        return msg.sender.balance;\n    }\n\n    function GetCurrentBlockNum()\n        public\n        view\n        returns (\n        uint)\n    {\n        return block.number;\n    }\n\n    function GetBlockNum(bytes32 key)\n        public\n        view\n        returns (\n        bytes32,\n        uint)\n    {\n        return (trans[key].TransKey,\n                trans[key].blockNum);\n    }\n\n    \n    function GetTransConditions(bytes32 key)\n        public\n        view\n        returns (\n        bytes32,\n        bool,\n        bool,\n        bool)\n    {\n        return (trans[key].TransKey,\n                trans[key].isUserConfirm,\n                trans[key].isSPConfirm,\n                trans[key].isBusinessConfirm);\n    }\n    \n    function GetTransShares(bytes32 key)\n        public\n        view\n        returns (\n        bytes32,\n        uint,\n        uint)\n    {\n        return (trans[key].TransKey,\n                trans[key].UserShare,\n                trans[key].SPShare);\n    }\n    \n    \n    function GetTransExist(bytes32 key)\n        public\n        view\n        returns (bool)\n    {\n        return (trans[key].isValue);\n    }\n    \n    \n    function GetReturnDeductionRatio()\n        public\n        view\n        returns (uint ratio)\n    {\n        return RETURN_DEDUCTION_RATIO;\n    }\n    \n    function AdjustReturnDeductionRatio(uint ratio)\n        public\n        OnlyOwner\n    {\n        RETURN_DEDUCTION_RATIO = ratio;   \n    }\n    \n    function GenerateTransKey(uint salt) \n        public view \n        returns (bytes32 TransKey) \n    {\n        /* \n        Should I use other parameter beside \"now\"\n        */\n        return keccak256(abi.encodePacked(msg.sender, now, salt));\n    }\n    \n    function InitTransaction(uint userShare, uint spShare) \n        public \n        payable \n    {\n        /*\n        TODO set the minimum value for UserShare and SPShare?\n        */\n        \n        /*\n        check if value is enough\n        */\n\n        /*\n        require(msg.value >= UserShare + SPShare);\n        */\n\n        /*\n        making sure the key is not duplicated\n        */\n        uint salt = 0;\n        bytes32 transKey = GenerateTransKey(salt);\n        while (true){\n            if (trans[transKey].isValue){\n                salt += 1;\n                transKey = GenerateTransKey(salt);\n            }else{\n                break;\n            }\n        }\n        Transaction memory t = Transaction({\n            TransKey : transKey,\n            Business : msg.sender,\n            User : address(0),\n            SP : address(0),\n            isUserAssigned: false,\n            isSPAssigned: false,\n            isBusinessConfirm : false,\n            isUserConfirm: false,\n            isSPConfirm: false,\n            UserShare : userShare,\n            SPShare : spShare,\n            isValue: true,\n            blockNum: block.number,\n            expireBlock: block.number + 3\n        });\n\n        trans[transKey] = t;\n        require(\n        trans[transKey].isValue == true,\n        \"transKey must exist!\"\n        );\n        require (\n        trans[transKey].Business == msg.sender,\n        \"Only business can call.\"\n        );\n        emit TransactionInited(transKey);\n    }\n    \n    function AssignUser(bytes32 transKey, address user)\n        public\n        TransExist(transKey)\n        OnlyBusiness(transKey)\n    {\n        Transaction storage t =  trans[transKey];\n        if (t.isUserAssigned == true){\n            return;\n        }\n        t.User = user;\n        t.isUserAssigned = true;\n        emit UserAssigned(transKey, user);\n    }\n    \n    function AssignSP(bytes32 transKey, address sp)\n        public\n        TransExist(transKey)\n    {\n        Transaction storage t =  trans[transKey];\n        if (t.isSPAssigned == true){\n            return;\n        }\n        t.SP = sp;\n        t.isSPAssigned = true;\n        emit SPAssigned(transKey, sp);\n    }\n    \n    function UserConfirm(bytes32 transKey)\n        public\n        TransExist(transKey)\n        OnlyUser(transKey)\n    {\n        trans[transKey].isUserConfirm = true;\n        // FulFill(transKey);\n    }\n    \n    function SPConfirm(bytes32 transKey)\n        public\n        TransExist(transKey)\n        OnlySP(transKey)\n    {\n        trans[transKey].isSPConfirm = true;\n        // FulFill(transKey);\n    }\n    \n    function BusinessConfirm(bytes32 transKey)\n        public\n        TransExist(transKey)\n        OnlyBusiness(transKey)\n    {\n        trans[transKey].isBusinessConfirm = true;\n        FulFill(transKey);\n    }\n    \n    function FulFill(bytes32 transKey)\n        public\n        TransExist(transKey)\n    {\n        \n        Transaction storage t =  trans[transKey];\n        require(address(this).balance >= t.SPShare + t.UserShare);\n        if (t.isBusinessConfirm && t.isSPConfirm && t.isUserConfirm){\n            t.User.transfer(t.UserShare);\n            t.SP.transfer(t.SPShare);\n            DeleteTrans(transKey);\n        }\n        if (t.isBusinessConfirm && t.isUserConfirm){\n            t.User.transfer(t.UserShare);\n            // t.SP.transfer(t.SPShare);\n            DeleteTrans(transKey);\n        }\n    }\n    \n    function UserReject(bytes32 transKey)\n        public\n        TransExist(transKey)\n        OnlyUser(transKey)\n    {\n        Transaction storage t =  trans[transKey];\n        if (t.isUserConfirm && t.isSPConfirm){\n            uint spShare = t.SPShare * RETURN_DEDUCTION_RATIO / 1000;\n            t.SP.transfer(spShare);\n            t.Business.transfer(t.SPShare - spShare + t.UserShare);\n            emit PaySP();\n        }else{\n            t.Business.transfer(t.SPShare + t.UserShare);\n            emit PayBack();\n        }\n        DeleteTrans(transKey);\n    }\n    \n    function SPReject(bytes32 transKey)\n        public\n        TransExist(transKey)\n        OnlySP(transKey)\n    {\n        Transaction storage t =  trans[transKey];\n        if (t.isUserConfirm){\n            uint userShare = t.SPShare * RETURN_DEDUCTION_RATIO / 1000;\n            t.User.transfer(userShare);\n            t.Business.transfer(t.UserShare - userShare + t.SPShare);\n        }else{\n            t.Business.transfer(t.UserShare + t.SPShare);\n        }\n        DeleteTrans(transKey);\n    }\n    \n    function DeleteTrans(bytes32 transKey)\n        private\n    {\n        delete trans[transKey];\n    }\n\n    /*\n    Expired check mechanism not implement Finished\n    */\n    function CheckExpired(bytes32 transKey)\n        public\n        TransExist(transKey)\n    {\n        Transaction storage t =  trans[transKey];\n        if (t.expireBlock < block.number) {\n            if (t.isBusinessConfirm) {\n                t.User.transfer(t.UserShare);\n                t.SP.transfer(t.SPShare);\n                emit PayAll();\n            }else if (t.isSPConfirm){\n                uint spShare = t.SPShare * RETURN_DEDUCTION_RATIO / 1000;\n                t.SP.transfer(spShare);\n                t.User.transfer(t.UserShare);\n                t.Business.transfer(t.SPShare - spShare);\n                emit PaySP();\n            }else if (t.isUserConfirm){\n                uint userShare = t.UserShare * RETURN_DEDUCTION_RATIO / 1000;\n                t.User.transfer(userShare);\n                t.Business.transfer(t.SPShare + t.UserShare - userShare);\n                emit PayUser();\n            }\n            DeleteTrans(transKey);\n\n        }\n\n    }\n    \n}",
  "sourcePath": "/Users/yuleili/Documents/Master_2018_Fall/Practicum/Bitclave/base-payment/truffle/contracts/Purchase.sol",
  "compiler": {
    "name": "solc",
    "version": "0.4.24+commit.e67f0147.Emscripten.clang"
  },
  "schemaVersion": "2.0.1",
  "updatedAt": "2018-12-13T23:19:39.192Z"
}